:020000040000fa
:080000000002040000000000f2
:020000040000fa
:10040000af90200000df2000000188000000000005
:100410000c00070060f92100010020001100070016
:10042000000020000000e000020032000000020096
:1004300000000000481c0200000000000040da003c
:100440000000fe004440a900000020000000e00081
:100450000300320000002000a00188004440a800f2
:100460000000060091018800800078000000eb0089
:1004700015003700e280400032a0b4009101ba00bc
:10048000e280400032a0b4009102ba00e280400055
:1004900032a0b4000002eb00472bde00f507b200eb
:1004a000602ce10004003a000059eb008301e900f0
:1004b000fdff3e00040037006128e100010032002a
:1004c0000082eb00040007001101ba000200e00006
:1004d000e8ff3a00000006003159ba008301e90044
:1004e0000c0032002159ba008301e90008003200f3
:1004f0000400e00003003a00e280400032a0b400b3
:10050000f5ff370011d9ba008301e900faff3a007c
:100510008100e800e180400032a0b4000000060045
:10052000889fbe008a9fbe008c1f7800cc01070008
:10053000d301330003866c006450e1002e003200ca
:100540006420e100330032006150e1002f003200ee
:100550006120e1003100320085855500eb07b000d5
:1005600009002000080420000500370008044400aa
:1005700089844c000a0031000603430087834b0046
:100580000001530081815b00f8ff33000203be00cd
:100590000800a0000804440089844c00f6ff3900dc
:1005a000c639dd0083017300010032001300200012
:1005b0008904d1000884d3000998a3000500320003
:1005c0000800a7000300a0008904d1000884d3001c
:1005d0008b05e8008904d1000884d3000001eb00fa
:1005e0000281d200b601070001f0a1000cf0a700c3
:1005f00001f0a000ab0137006420e100ad01320042
:100600000801be000200be00f7ff37006120e100d4
:10061000a80132006000b800f3ff3700000020009e
:1006200001f82700f0ff370003f0a200889fbe000a
:100630008a9fbe008c1f780089010700900133005b
:100640006450e1004f0032006420e10052003200ab
:1006500003826c0007003b000905d0000306d000b0
:10066000820f54000c065d000200390002003200c7
:1006700089017800030678008582550004003d005a
:100680000003fd008103fd008502ea008b85420026
:10069000840f720002003b0060001000e080180030
:1006a0006011b8000005eb007a28e1000a0039006b
:1006b00006007800c75ddd00f707b200878075008f
:1006c0002d003700828171000a0178006105600009
:1006d0008180d1000080d3008502e900f9ff3b0052
:1006e000060440008784480002003b0060041400b8
:1006f000e0841c000988a300070032008a81710091
:1007000082817100610164008904d1000884d300f2
:100710008b05e800170037000978a30013003a00a2
:100720000b00e000130034008b05e90008044400ce
:1007300089844c000a4474000978a3000d003a0033
:100740000b00e000070034008b05e90008044400ba
:1007500089844c0001003a000b0020000978a300b6
:10076000f7ff32000001eb000200370082817100c8
:100770000a017800520107000cf0a70001f0a00068
:10078000480137006420e10002003a00838f6c00ca
:10079000480133000801be000200be0041013700dd
:1007a000839f68000100e00002003d00600010002f
:1007b000e08018000300e00002003d00600111002d
:1007c000e0811900640107004f00e00002003b00d7
:1007d00060001000e080180000000600889fbe0046
:1007e0008a9fbe00010578000100e000040035008a
:1007f00008003c000000e000200032000500370047
:1008000060001000e080180002003b0001f02c00a6
:100810001a0037000004be006011b8006b09200008
:100820000982cf00020039000882cf000441b000e5
:10083000694252000e00320008003b0082817100c4
:10084000610164008904d1000884d3008b05e800ad
:100850000442e800f9ff3a000500370008044400ac
:1008600089844c008b05e9000442e900fbff3a0053
:10087000130107000af0a70001f0a0004f05be0019
:100880004f04be0000000600889fbe008a9fbe0085
:100890008c1f7800f2000700f900330003866c001b
:1008a0006450e100240032006420e100270032009f
:1008b0006150e100220032006120e100210032009d
:1008c0008b854200eb07b1000134b800003ab80054
:1008d0000804420089844a00013ab8000030b80098
:1008e0008880400009014a000400330000004000f5
:1008f00081804800020149008b05e900c909dd003b
:10090000830170000100320013002000c814de00d3
:100910004814dd004709de001200b200c808de00fe
:1009200008847000e600070001f0a1000cf0a700a9
:1009300001f0a000db0037006120e100dd003200a3
:100940000801be000200be00f7ff37006150e10061
:10095000fcff3a00d70037000001eb000e01370022
:100960000081eb000c013700889fbe008a9fbe000b
:100970008c1f7800ba0007001002200002003b0024
:1009800040488800be0037008a0062006408e10029
:1009900002003a0040488800c60037006108e100c4
:1009a000fcff32000800be0003047800dcfe0700f4
:1009b00001f0a1006101070008f0a6000400370063
:1009c0000001be0091042400b0fd200016ff0700c6
:1009d00009f0a70001f0a200b200370014002000c7
:1009e000bb0137000001eb00d401370032002000ca
:1009f000d2013700889fbe008a9fbe000004be005f
:100a0000350207000800be006420e100070039003d
:100a100002003a00f1ff2700f0ff2f000160a00064
:100a200012022000424888004c00370001f0a1006b
:100a300002802000935c2400e8ff07000800be004d
:100a400004003500b2fd20009304240037020700a3
:100a50000004be0032982f0023f223008aff070013
:100a60000200200003f0230001f0a70003f0a00023
:100a7000eefe070059000700801f780057ff0700af
:100a800001f0a2000005be000200200093fc23003c
:100a90007dff07000801be00e4fe0700809fbe0046
:100aa0000a00be0022a22a00d39f230076ff07007f
:100ab0004f01be00ddfe07000004be0001f0a100f2
:100ac00002002000039823002700070003003d00d8
:100ad0000000200001f82300180037000800be00c5
:100ae0000001be0068ff07000005be00823b230036
:100af00043dc2b0064ff07000801be0062ff070013
:100b00000801be00c9fe07000004be000a00be00c6
:100b100052372300f3c123005bff0700f27a2b005a
:100b2000b3ed2b00c1fe07000a01be0056ff07000f
:100b30000200200003f82300bcfe07004f00a600bf
:100b4000030037000801be0003f0a20002003700d6
:100b50000001be000800be0071fe07004f05be0088
:100b60004f04be0000000600f4ff2f0058013700bc
:100b70000001be00d80107000470a70003f0a10027
:100b800003f8a30013003a006509b1001000320019
:100b9000090035006928e100020035000100280045
:100ba0000000050000004000818048008502e90047
:100bb000fcff3a0000000600f88f420005003500f7
:100bc0008100d1000080d3008502e800fcff3a00dc
:100bd000000006008000eb00000005000001be00e0
:100be000bd0107000470a70003f0a1006509b10072
:100bf000160032000d0035006828e10006003500bf
:100c0000f0ff2f00f1ff27000300e00013003b007e
:100c1000010028000000050000004000818048001d
:100c20008502e900fcff3a0008003700f88f420017
:100c300002003c008000eb00000005008100d100b4
:100c40000080d3008502e800fcff3a000300e000ca
:100c500002003b0060001000e08018000000060069
:100c60000004be009c0107000003be000405be0096
:100c70000200be0098010700844f750000000600c6
:100c80000200be006450e100050036006420e1006f
:100c9000020036000968a30001003a000800be0007
:100ca0000160a0004f0678004f05be004f04be0053
:100cb00000000600f0ff2f00f1ff2700f9ff3700ca
:100cc00081002000618055000b003d000b002000da
:100cd00061fe2f000100e1001d00340082817100df
:100ce000610164008904d1000884d3000000e80099
:100cf000faff3a00710020006100640003007000f8
:100d0000020060000900320061044400e0844c00ed
:100d10000988a500050032008b05e8006808e1009d
:100d200002003a008904d1000884d300f20f2000a9
:100d30000258e10005003d00c75ddd00f907b20083
:100d40008980750008007800000006000bf8270075
:100d50008b007800000005006022b8000602200029
:100d60000000d0008180d2000482d2008582d200af
:100d70000000a0000202520083825a0003003100ea
:100d80000202420083824a000000a1000603e9003b
:100d9000f3ff3a0000000600889fbe008a9fbe0055
:100da0008c9fbe00820578000004be004a01070047
:100db0000800be006420e1000700390002003a008c
:100dc000f1ff2700f0ff2f000160a00012022000b9
:100dd00042488800550037006120e10003003a00d6
:100de0000b00a70001f823005000370001f0a1001c
:100df0000200210093642400f8fe07000800be00f2
:100e000004003500b2fd2000930c240047010700c8
:100e10000004be000005eb000b00a6004f0dde0035
:100e200001f0a1000004be0032982f0023ea230045
:100e300095fe07000001eb0003f023000b00a70064
:100e400003f82300f9fd070064ff07000000a70076
:100e50000a00a20061fe07000b00e0000300320060
:100e60000200200003f02300effd070001f0a200c4
:100e70000006be00020020009304240082fe07004a
:100e80000801be00e9fd0700809fbe000c00be0007
:100e900022a22a00d3a723007bfe07004f01be0039
:100ea000e2fd07000004be0001f0a10002002000e6
:100eb00003982300c9fe07000800be001900350092
:100ec0000001be0070fe07000006be00b2c529008a
:100ed000e36223006cfe070022222b00f3942b0018
:100ee000d2fd07000c01be0067fe0700e273280078
:100ef00083c02300cdfd07000c01be0062fe070089
:100f000042aa2a00a3e22b00c8fd07000c01be0084
:100f10005dfe07000801be005bfe07000801be0081
:100f2000c2fd07000a00a70001f0a2004f06be00a4
:100f30004f05be004f04be0000000600889fbe00a3
:100f40008a9fbe008c9fbe000004be00e200070026
:100f50000800be00890678006420e100080039001e
:100f6000040032000160a000120220004248880004
:100f70005300370091fc2300b0fd20004e003700e5
:100f80000006eb0009f0a10003f823000200200096
:100f90000800be0091fe07000600340001f823009f
:100fa000000020000801be005dfd07000004be0037
:100fb0002c0020000800be0093e82300320a230022
:100fc00086fe0700120034000801be00d1fd230098
:100fd000703d2b0095fd07000005be00b3f3230014
:100fe000f27a26000800be0027fe070003f823005f
:100ff000020020008cfd07000801be008bfd0700e9
:101000000a01be0046fd07000004be000c06e80011
:101010000800be0001f0a100020020000398230098
:101020006efe07000800be00160035000801be0075
:1010300015fe07000005be0032cd2c0043fb230047
:101040007afd0700809fbe001269280003d52b009f
:101050000a00be000cfe0700620f210013ef2b00f8
:1010600072fd07000a01be0007fe07004f01be0027
:101070002bfd07000801be0003fe07000801be00ab
:101080006afd07000c00e0000b0032000c10a70006
:1010900001f0a200b2fd200093fc23006260e10099
:1010a0000400320022a9200063f023000c10a700e6
:1010b00063f823005dfd07000df0a70001f0a2001a
:1010c0004f06be004f05be004f04be0000000600e4
:1010d000889fbe008a9fbe00841f7800e0fe070044
:1010e0004f00780011003300f0ff2f00838f6c0059
:1010f00006003b00040565000a00a7000800370051
:1011000009f0a6001000200008003700820f5400ec
:10111000838f5c00030039001000200001003e00b6
:101120000000200009f0a7000000ea004f05be0003
:101130004f04be000000e00000000600889fbe00d3
:101140008a9fbe008c9fbe000206780001f0a700b7
:101150000cf0a0000004be005f0007000800be0005
:101160006420e1000700390002003a00f1ff270087
:10117000f0ff2f000160a00012022000424888000a
:101180005100370009f0a1000800be000200200055
:1011900003f8230074fe0700f4ff3c000800be00c3
:1011a00002002000039823000cfe07000800be0088
:1011b000300035000200200003f023006afe070023
:1011c00005003c000800be000801be00aefd07009f
:1011d0000005be000e0037000c10a2000000200029
:1011e00001f823000801be000ffd070002002000e7
:1011f00003f02300a4fd07000005be004d0007001a
:101200000200200003002c009ffd07000004be0028
:101210000a00be00b2d02800130b2c0003fd07000b
:101220000a01be0098fd0700020f2500330b2400c1
:10123000fefc0700809fbe000a00be00520622008e
:1012400013f02b0090fd0700b2662100f3f6230097
:10125000f6fc07000a01be008bfd07004f01be002f
:10126000affc07000801be0087fd07000801be00b3
:10127000eefc07000c00a70007003700b2fd2000bd
:1012800093fc23000c10a700e8fc07000cf0a7005b
:1012900001f0a2000c0037000cf0a700020037009c
:1012a00001f0a20004003700b2fd200093042400e6
:1012b0000c10a60003003700b2fd200093fc2300b1
:1012c0000c10a700d9fc07004f06be004f05be005a
:1012d0004f04be0000000600c70ade00f107b2009e
:1012e000f50fb20008003200e1cf420002003200e8
:1012f0000170a00024000500810f70000100320081
:101300000408050044000500810f700002003a0047
:10131000140005008502e9000000400081c048007b
:10132000fcff3b000170a000240005000400200029
:1013300035003700889fbe008a9fbe008c1f780052
:101340000004be00e4ff07000478a30026003a0072
:101350006120e1002500320009f8a30025003a00d1
:101360006420e10021003200f507b1000508a30068
:101370000200320000004000818048006044b80054
:10138000031020000200200000004000818048007f
:101390000805440089854c000a0541008b854900f9
:1013a0000a0550008b855800030033000a00be0078
:1013b00002047400838474008301d1000281d3008d
:1013c000830f7100f0ff3a008904d1000884d30034
:1013d0006001490082017800c1adde00fb07b0006a
:1013e00037fe07002ffe37000960a0000800be008e
:1013f0002cfe37001202200042488800f0ff2f0028
:10140000f1ff270027fe3700889fbe008a9fbe009d
:101410008c1f78004f26dd0011fe070018fe3300f8
:101420006120e100430032006250e10041003e00d3
:101430003e0039006420e1003c0032000582550086
:101440000f003b000402e80038003a00800f530010
:10145000818f5b00350034000800be0003f0a1005e
:1014600001f0a60003f0a0000cf0a7006ffc07003d
:101470000cfe37000603430087834b000c464600f2
:101480000005530081855b00020033000a03be00a3
:101490000c00a0000402e900f6ff3b00850578007f
:1014a0000602430087824b0004003a006000b80047
:1014b00009f0a70001f0a000fafd37000002520079
:1014c00081825a000704e000040033000603430051
:1014d00087834b008b05e900faff37000905780088
:1014e0000604be000203be006011b800f4fd070050
:1014f000e00f5200e08f5a000700350002003c0068
:101500000c08a300040032000601be0003f0a00096
:101510000cf0a70045fc07000a85680001f0a10057
:101520000af0a70001f0a000defd37000800be00b1
:10153000dcfd3700100220000cf0a60040488800b7
:04154000dcfd370097
:020000040000fa
:0200000401f009
:04000000ffff0000fe
:020000040000fa
:0200000401f009
:04000800fcff0000f9
:020000040000fa
:0200000401f009
:04000c0078ff000079
:020000040000fa
:0200000401f009
:04001000b3ff00003a
:020000040000fa
:0200000401f009
:0400140060ff000089
:020000040000fa
:0200000401f009
:040018005cff000089
:020000040000fa
:0200000401f009
:04001c00feff0000e3
:020000040000fa
:0200000401f009
:040020002fff0000ae
:020000040000fa
:10000800a41f0000a41f0000a41f0000a41f0000dc
:10001800a41f0000a41f0000a41f0000a41f0000cc
:10002800a41f0000a41f0000a41f0000a41f0000bc
:10003800a41f0000a41f0000a41f0000a41f0000ac
:020000040000fa
:020000040000fa
:101544000c00fa00889fbe008a9fbe004567a90070
:101554004043800051438000020020000327240000
:10156400eefb070002438000134380002efc0700bb
:101574000200200003272400e8fb0700c242800089
:10158400d342800028fc07008243800093438000fc
:1015940024fc0700a2438000b343800021fc070021
:1015a400e0438800f1438800204180006e00500031
:1015b400c2002000110009000200d800cf80de0024
:1015c4004042880051428800f1408000002c2100f4
:1015d400008040006101b900404280005142800017
:1015e400020340008383480086007800505b20009b
:1015f4000009b8006030b90003027800000242001c
:10160400505b200000b8b900000242008401780059
:1016140022079800330798002e009000be00900027
:10162400e00f5000e08f580006003d002e019000ae
:10163400be01900063014100e08149002207980047
:10164400330798002e029000be0290004e29dd0060
:101654004220de0000007100c2a8de000005be00ca
:10166400204180006102b90084007800f016200057
:10167400000cb8006020b9000901780000014100a5
:10168400f016200000a8b90000014100820478008f
:10169400464280005742800086007800c0ec2e004d
:1016a400000ab8000080eb0000b0b9000501780022
:1016b40000014100c0ec2e0000b8b9000001410057
:1016c400820278000801420089814a0020d22f005a
:1016d400f1ff2f000200400083804800c200200078
:1016e400030020002dfc07000a0540008b854800fc
:1016f4000a8fbe00f140800040322100008040008b
:101704006101b90040428000514280000200400063
:101714008380480042062000030020001ffc0700cd
:101724000003be008600780030002000000ab800e4
:101734006030b90005017800000141006338b90048
:101744000001410082027800440798005507980080
:101754004e029000de029000e00f5200e08f5a002b
:1017640006003d004e009000de0090006300400043
:10177400e080480040079800510798004e0190000f
:10178400de0190004e1add004210de0000007200ff
:10179400c298de001e02be000001520081815a0080
:1017a40050418000cf80de00020140008381480068
:1017b400502b2800f1ff2f000200400083804800d6
:1017c400604288007142880060428000714280005b
:1017d40001fc07000200200003f0230091fb070036
:1017e4000004be00e0438000f143800002002000ba
:1017f400031c240049fb07000001be000800be00d2
:1018040089fb07008044880091448800804480005c
:101814009144800042162a0053a1240081fb070052
:1018240060448800714488006044800071448000f2
:1018340082e7230083a82b0012fc070062542200d5
:101844009300240078fb0700404688005146880036
:101854006044800071448000e2cd2e00c3c82300a0
:1018640008fc0700b2452a00c30924006efb0700e8
:10187400e0458800f14588006044800071448000a0
:1018840052b22e00c3c82300fefb070022e92a003f
:10189400730c240064fb070000468800114688008e
:1018a40000468000114680002afc0700a2f42d00a7
:1018b40083d02300f3fb07000002be00e045800054
:1018c400f14580000001be000400be0056fb070085
:1018d4000004be0000468000114680000001be00e6
:1018e40051fb07001bfc0700f21e2f00639b230023
:1018f400e4fb07000001be000800be004afb07002d
:1019040092122d00d38e230046fb07000004be0074
:1019140040468000514680000efc0700b29e240021
:10192400a37a2b00d7fb07000001be000800be000d
:101934003dfb0700604688007146880060448000d3
:1019440071448000c22e2800531d2b00cdfb0700dc
:10195400d249270013ed230033fb07000004be0027
:101964004046800051468000fcfb0700d2822100e3
:1019740063822300c3fb07000001be000800be0011
:1019840029fb070080468800914688006046800055
:1019940071468000effb070020468800314688002e
:1019a4008046800091468000ecfb070022468000c0
:1019b40033468000b3fb0700e0468800f146880008
:1019c4006046800071468000e4fb07000047880001
:1019d4001147880000478000114780000001be00c5
:1019e400e0468000f1468000defb0700a046880048
:1019f400b1468800a0468000b14680006011b8005e
:101a0400f5fb07000000e000010035000700370087
:101a1400a0468000b1468000b2fd2000930c240053
:101a240001fb0700a0468800b1468800804680007c
:101a340091468000c7fb07002246800033468000a1
:101a440090fb0700e6fb0700c0468800d1468800eb
:101a54006044800071448000022e290063d8230072
:101a640088fb0700d2142500630d2400eefa07005a
:101a7400e2438000f3438000ebfa0700404788000c
:101a840051478800404780005147800002002000f1
:101a9400031724007bfb0700424580005345800068
:101aa400e1fa070052a32f00e3c8230075fb0700e7
:101ab4006047880071478800604780007147800054
:101ac400a2468000b3468000d6fa0700a0478800eb
:101ad400b1478800604580007145800052a32f0003
:101ae400e3c8230067fb070080478800914788000c
:101af400804780009147800098fb0700c04788001a
:101b0400d1478800804780009147800091fb0700ff
:101b1400e0478800f1478800a0478000b147800073
:101b24008efb07000048880011488800c0478000e9
:101b3400d1478000024880001348800051fb070011
:101b44000004be00c0468000d146800083fb07002d
:101b54000001be000800be004afb07000004be00ee
:101b6400c0468000d14680007afb0700e24780002f
:101b7400f347800043fb07000001be000800be00dd
:101b8400a9fa070098fb0700804588009145880062
:101b9400a0478000b14780006efb070001f0a2005f
:101ba400e0468800f1468800c0468000d1468000a7
:101bb4008ffb0700c2478000d347800031fb07003a
:101bc4000004be00e0478000f14780000248800026
:101bd400134880002bfb07000001be000800be0074
:101be40090fa0700004788001147880000478000ea
:101bf400114780000001be00e0468000f1468000ed
:101c040058fb0700a0458800b1458800a045800026
:101c1400b14580006011b8006ffb07000000e000d0
:101c24000100350007003700a0458000b145800061
:101c3400b2fd2000930c24007bfa0700a045880025
:101c4400b1458800a0458000b145800052a32f0013
:101c5400e3c8230031fa0700a0458800b145880095
:101c640080458000914580003afb0700c2002a00ad
:101c74002383230003fb07002048880031488800a1
:101c840080458000914580002248800033488000d0
:101c940065fa070052a32f00e3c823001ffa0700c8
:101ca40080458800914588008245800093458000e6
:101cb40000002000412b24005afa0700c045880088
:101cc400d1458800a0458000b14580000200200075
:101cd40043332400a3fb07000000e00001003d00a3
:101ce4000c003700a0458000b145800002002000b0
:101cf400433324004bfa070042ca2700133c240054
:101d0400e0fa070099fb0700a0418800b141880070
:101d14000b003700a0458000b14580000200200080
:101d24004333240040fa070042ca2700133c24002e
:101d3400d4fa07008dfb0700a0418800b141880058
:101d4400804580009145800002002000432b240040
:101d540021fb07000000e000010034000c00370004
:101d6400824580009345800000002000412b240020
:101d74002cfa070042ca2700133c2400c1fa0700ca
:101d84007afb0700c0418800d14188000f0037006a
:101d9400804580009145800002002000432b2400f0
:101da40020fa07000001be0000002000413b24008f
:101db4001cfa070042ca2700133c2400b1fa0700aa
:101dc4006afb0700c0418800d14188004567a8002c
:101dd4004f05be004f04be000080fa00000006005c
:101de4000200fa00004f78001e80fb00a2002000d1
:101df400110009000280d8000080fb004400dd00cf
:101e0400804078001e80fb00a2002000811f780023
:101e1400110009000280d800000178000100780058
:101e2400cf00780000c040000080fb000080fa0072
:101e3400000006000200fa00004f78009e80fb00bc
:101e4400000f2000008060004480de006a00b900ba
:101e5400804078001e4078006f40600000c0400061
:101e64000080fb000080fa00000006000200fa0077
:101e7400cac2bf000080fb004700de004300dd0053
:101e840004e8b700cbc2bf00614060000080fb00e3
:101e94004200dd008040780004c8bf0000c040005c
:101ea40004e8b700cbc2bf000080fb000000d100f3
:101eb400614060000080fb0000004000804078002a
:101ec40004c8bf0000c0400004e8b700c2c2bf009d
:101ed4000080fb004600de00614060008040780026
:101ee40004c8bf0000c0400004e8b70004c8bf0035
:101ef4008040eb00014f7800ef4f500002003200a9
:101f040010c0b300004f78009e40780061c06000ac
:101f140000414000212c200091407800d0cfb30034
:101f240000c0600002407000c2e2b7000080fa0006
:101f3400000006000200fa00000f78007167a90093
:101f44000000280020088800060037000000eb008d
:101f54000008880001088000f0f92000808f5000fc
:101f6400fcff36001e0fe9000080eb009e0f1000fe
:101f7400f6ff3a000000eb00200888007167a80013
:101f84000080fa00000006000000fa0070a7a90013
:101f9400a0002000e7ff0700900120004011880006
:101fa400000024001011880000812800001188001e
:101fb4002342a9000080fa00000006000000fa0095
:101fc40090012000c01188000000240090118800b6
:101fd40000812800801188003342a8000080fa00a4
:101fe400000006000200fa00004f78006ae0a90031
:101ff400e0f72f004016880023c2bf006240600053
:102004000004e000fcff3a001e80fb002011880061
:102014000080fa00000006000200fa00004f780079
:10202400c282a90033c2bf00624060000004e00025
:10203400fcff3a001e80fb00a01188000080fa001b
:10204400000006000000fa000000370022c2bf00b2
:10205400614060000004e000fcff320022c2bf00c7
:10206400644060000004e00003003200301180008e
:1020740005e8b700f5ff3700301180000080fb0051
:102084000080fa00000006000200fa00edff0700dd
:1020940007e8b70007c8bf008080fb00000f2000de
:1020a4008080600000032000808f500004003a000c
:1020b40007c8bf000080fb00000f78000100370054
:1020c400ffff37001e0078000080fa0000000600c1
:1020d4000000fa00b01180000080fb000080fa00cc
:1020e400000006000000fa00c202a8001000200050
:1020f40090ff0700c202a900100020008dff070016
:102104000080fa00000006000000fa00deff07006d
:102114000080fb006f006000cf80de00aef9070096
:102124000200200003122400d6f90700c0428800f0
:10213400d1428800d4ff07000080fb006f006000dc
:10214400cf80de00a4f90700c2428000d3428000a1
:1021540035f90700c0428800d1428800b9ff070062
:10216400c9ff07000080fb006f006000cf80de0025
:1021740099f907000200200003122400c1f90700a6
:102184000043880011438800bfff07000080fb0064
:102194006f006000cf80de008ff9070002438000eb
:1021a4001343800020f9070000438800114388008e
:1021b400a4ff0700b4ff07000080fb006f0060006d
:1021c4006a00b900cf80de0083f90700404388002d
:1021d40051438800acff07000080fb006f006000e3
:1021e400cf80de007cf90700424380005343800027
:1021f4000df90700404388005143880091ff070010
:10220400a1ff07000080fb006f006000cf80de00ac
:1022140071f90700d2cc2c00c3dc230099f9070024
:102224004243800053438000fff807004043880086
:102234005143880094ff07000080fb006f0060009a
:10224400cf80de0064f90700a2702d0033c22300a2
:102254008cf907004243800053438000f2f80700e2
:1022640040438800514388000080fa0000000600c3
:102274000000fa000040eb0001e8b7000040eb006a
:1022840003e8b70000c2b30005e8b7000200370056
:102294006cff070005e8b7005180200091407800ea
:1022a40030c5b30080cf5000f9ff3a0065ff070046
:1022b4008040780030c4b30080cf50000100320069
:1022c400ffff37005fff07008040780010c4b300b1
:1022d40080cf500082003a005aff070005e8b7009b
:1022e4005180200091407800b0c2b30080cf5000ec
:1022f400060032005180200091407800d0c2b30023
:1023040080cf500001003200ffff37005eff07005e
:102314000080fb006f006000cf80de002ef9070014
:1023240002002000832c240056f907004045880051
:102334005145880054ff07000080fb006f006000d7
:10234400cf80de0024f907000200200003122400dd
:102354004cf907004245800053458000b2f807005d
:10236400404588005145880047ff07000080fb0076
:102374006f006000cf80de0017f90700424580003f
:1023840053458000a8f8070040458800514588005f
:102394002cff07003cff07000080fb006f0060007b
:1023a400cf80de000cf90700d2cc2c00c3dc230064
:1023b40034f9070042458000534580009af807002d
:1023c40040458800514588002fff07000080fb002e
:1023d4006f006000cf80de00fff80700a2702d00c0
:1023e40033c2230027f9070042458000534580008b
:1023f4008df80700404588005145880022ff0700fa
:102404000080fb006f006000cf80de00f2f8070060
:10241400f226210033a823001af907004245800060
:102424005345800080f807004045880051458800e6
:1024340015ff07000080fb006f006000cf80de0006
:10244400e5f8070072712b00138d23000df90700c6
:10245400424580005345800073f8070040458800da
:10246400514588005180200091407800d0c2b300cb
:1024740080cf500005003a0040458000514580005f
:1024840001f0a20040458800514588004045800085
:10249400514580000200200043332400b1f90700b5
:1024a4000000e00001003c0001003700ffff37009e
:1024b40040458000514580000200200043332c0039
:1024c40045f907000000e000010035000100370075
:1024d400ffff370000c2b30005e8b7000300370070
:1024e400ffff3700d7fe070005e8b7005180200042
:1024f4009140780030c5b30080cf5000f9ff3a0016
:10250400d0fe07008040780030c4b30080cf500074
:1025140001003200ffff3700cafe07008040780048
:1025240020c4b30080cf500082003a00c5fe0700eb
:1025340005e8b7005180200091407800b0c2b30094
:1025440080cf500006003200518020009140780076
:10255400d0c2b30080cf500001003200ffff37002b
:10256400c9fe07000080fb006f006000cf80de0022
:1025740099f8070002002000832c2400c1f807000a
:102584006045880071458800bffe07000080fb009d
:102594006f006000cf80de008ff80700020020008b
:1025a40003122400b7f807006245800073458000d9
:1025b4001df807006045880071458800b2fe0700d9
:1025c4000080fb006f006000cf80de0082f807000f
:1025d400624580007345800013f807006045880059
:1025e4007145880097fe0700a7fe07000080fb00e6
:1025f4006f006000cf80de0077f80700d2cc2c009b
:10260400c3dc23009ff80700624580007345800007
:1026140005f8070060458800714588009afe0700a8
:102624000080fb006f006000cf80de006af80700c6
:10263400a2702d0033c2230092f807006245800087
:1026440073458000f8f707006045880071458800ed
:102654008dfe07000080fb006f006000cf80de006d
:102664005df80700f226210033a8230085f807004f
:102674006245800073458000ebf7070060458800e1
:102684007145880080fe07000080fb006f00600039
:10269400cf80de0050f8070072712b00138d2300e9
:1026a40078f807006245800073458000def7070074
:1026b4006045880071458800518020009140780071
:1026c400d0c2b30080cf500005003a0060458000be
:1026d4007145800001f0a2006045880071458800c2
:1026e400604580007145800002002000432b2400d7
:1026f4001cf907000000e00001003c000100370065
:10270400ffff370060458000714580000200200013
:10271400432b2c00b0f807000000e0000100350056
:1027240001003700ffff370000c2b30005e8b7001f
:1027340003003700ffff370042fe070005e8b7003b
:10274400518020009140780030c5b30080cf500004
:10275400f9ff3a003bfe07008040780030c4b30024
:1027640080cf500001003200ffff370035fe070024
:102774008040780030c4b30080cf50005a003a0043
:1027840041fe07008040780000c3b30080cf5000b2
:1027940004003a006000b800a0438800b1438800f8
:1027a400040037000000200001f82300a043880043
:1027b400b143880023fe070022fe070005e8b700a6
:1027c4005180200091407800b0c2b30080cf500007
:1027d400060032005180200091407800d0c2b3003e
:1027e40080cf500001003200ffff370026fe0700b3
:1027f4000080fb006f006000cf80de00f6f707006a
:1028040002002000031224001ef807008043880001
:10281400914388001cfe07000080fb006f006000ed
:10282400cf80de00ecf707008243800093438000f2
:102834007df70700804388009143880012fe07005b
:102844000080fb006f006000cf80de00e2f707002d
:1028540002002000031224000af807002047880021
:102864003147880008fe07000080fb006f0060000d
:10287400cf80de00d8f7070022478000334780006e
:1028840069f7070020478800314788002047800007
:102894003147800002002000032724001ff70700af
:1028a40082438000934380005ff7070080438800e1
:1028b400914388005180200091407800d0c2b30039
:1028c40080cf500005003a0080438000914380008f
:1028d40001f0a200804388009143880000c2b30045
:1028e40005e8b70003003700ffff3700d5fd0700f8
:1028f40005e8b700518020009140780030c5b3004e
:1029040080cf5000f9ff3a00cefd070080407800e8
:1029140030c4b30080cf500001003200ffff370005
:10292400c8fd07008040780040c4b30080cf500049
:102934003e003a00d4fd07000080fb00ef00600079
:10294400803e20000088b900f0408800cefd0700da
:102954000080fb00ef006000400620000088b90002
:1029640080007800f040800000804000f040880043
:10297400c5fd07000080fb006f0060006a00b9001d
:1029840080007800f040800000804000f040880023
:10299400bdfd07000080fb00ef006000f0408000f8
:1029a40000804000f0408800f04080000041880032
:1029b400a4fd0700b4fd07000080fb006f00600069
:1029c4006a00b90020418800affd07000080fb00c9
:1029d400ef0060002041800000804000204188001a
:1029e400204180003041880096fd0700a6fd0700c5
:1029f4000080fb006f0060006a00b900504188004d
:102a0400a1fd07000080fb00ef0060005041800042
:102a1400008040005041880050418000604188009f
:102a240000c2b30005e8b70003003700ffff37001a
:102a340084fd070005e8b70051802000914078002c
:102a440030c5b30080cf5000f9ff3a007dfd070088
:102a54008040780030c4b30080cf500001003200c1
:102a6400ffff370077fd07008040780050c4b300b3
:102a740080cf500004003a00a3fd070000c2b30059
:102a840005e8b70003003700ffff37006dfd0700be
:102a940005e8b700518020009140780030c5b300ac
:102aa40080cf5000f9ff3a0066fd070080407800af
:102ab40030c4b30080cf500001003200ffff370064
:102ac40060fd07008040780050c4b30080cf500000
:102ad40007003a008cfd07005afd07000040eb0098
:102ae4000be8b70010c0b30001e8b70001003700dd
:102af400ffff37000080fa00000006000200fa0021
:102b0400881f78001e00780050052000303b8800a4
:102b1400a00a2000303b880027a6a80027e6a900c9
:102b240027c6bf003040b30027e6b700f04080005e
:102b34008040780000cdb30000c05000a8fc07001e
:102b44000080fb00604088006040800020318800e5
:102b5400204180000040e900a1fc07000080fb0048
:102b64004804dd00504180000040e9009cfc07005f
:102b74000080fb000000440060408800604080004a
:102b840020318800c0428000d1428000f7f707005e
:102b940093fc07000080fb006040880060408000d8
:102ba400203188000043800011438000eff70700c4
:102bb4008bfc07000080fb004804dd0040438000dc
:102bc40051438000e9f7070085fc07000080fb0003
:102bd400000044006040880060408000203188008c
:102be4000bc8bf0026e6b70027e6a800c12f2000c7
:102bf4009140780090cfb30000c060000014a000a2
:102c0400fce2b7002746a80027a6a9004f047800d5
:102c14000080fa00000006000c00fa00881f78000b
:102c24000000370027c6bf003040b30027e6b700d6
:102c3400203180007040880020318000804088006e
:102c4400203180009040880020318000a04088001e
:102c540027c6bf003040b30027e6b700203180000c
:102c6400b040880020318000c040880020318000be
:102c7400d040880020318000e0408800714080000e
:102c8400b0408000808f5000e6ff3a008140800011
:102c9400c0408000808f5000e2ff3a0091408000e5
:102ca400d0408000808f5000deff3a00a1408000b9
:102cb400e0408000808f5000daff3a00b04080008e
:102cc4005cfc07008080fb00007d20000080400049
:102cd400f0408800c04080004800de0055fc07003a
:102ce4000080fb000000e80020418800c040800014
:102cf40050fc07000080fb000000e8005041880001
:102d0400d04080004bfc0700004478000800fb0022
:102d1400cf80de00b0f60700400798005107980006
:102d24000804e00007003d000200200003382400ee
:102d34004e009000de0090003bf60700400798002c
:102d4400510798004e009000de009000c0428800b9
:102d5400d1428800e04080004800de0035fc0700d6
:102d6400004478000800fb00cf80de009af60700dc
:102d740020079800310798000804e00007003d0090
:102d840002002000033824002e009000be009000b2
:102d940025f6070020079800310798002e009000c0
:102da400be0090000043880011438800e04080008a
:102db40020fc0700004478000800fb00cf80de0000
:102dc40085f60700008fbe000804e00005003d0002
:102dd40002002000033824001e00be0012f6070083
:102de400008fbe001e00be0040438800514388008f
:102df40026c6bf000be8b7004f0478000080fa0035
:102e0400000006001800fa00889fbe008a9fbe00da
:102e14000040eb0002e8b700204180006e00500043
:102e2400c2002000110009000200d800cf80de009b
:102e34004042880051428800f1408000002c21006b
:102e4400008040006101b90040428000514280008e
:102e5400020340008383480086007800505b200012
:102e64000009b8006030b900030278000002420093
:102e7400505b200000b8b9000002420084017800d1
:102e840042079800530798004e009000de0090001f
:102e9400e00f5000e08f580006003d004e01900006
:102ea400de01900063014100e0814900420798007f
:102eb400530798004e029000de0290004e29dd0078
:102ec4004220de0000007100c2a8de000005be0042
:102ed400204180006102b90084007800f0162000cf
:102ee400000cb8006020b90009017800000141001d
:102ef400f016200000a8b900000141008204780007
:102f0400464280005742800086007800c0ec2e00c4
:102f1400000ab8000080eb0000b0b9000501780099
:102f240000014100c0ec2e0000b8b90000014100ce
:102f3400820278000801420089814a0020d22f00d1
:102f4400f1ff2f000200400083804800c2002000ef
:102f54000300200011f607000a0540008b85480095
:102f64002a0798003b079800f14080004032210076
:102f7400008040006101b90040428000514280005d
:102f84000200400083804800420620000300200025
:102f940002f607000003be0086007800300020001f
:102fa400000ab8006030b900050178000001410052
:102fb4006338b90000014100820278006407980078
:102fc400750798006e029000fe029000e00f520018
:102fd400e08f5a0006003d006e009000fe00900055
:102fe40063004000e0804800600798007107980083
:102ff4006e019000fe0190004e1add004210de00ca
:1030040000007200c298de002e029000be02900002
:103014000001520081815a0050418000cf80de00bf
:103024000201400083814800502b2800f1ff2f004b
:10303400020040008380480060428800714288009a
:1030440040438000514380000200200003272400f5
:1030540032f50700024380001343800072f5070035
:1030640002002000032724002cf50700c242800040
:10307400d34280006cf507000044880011448800a6
:103084006042800071428000d3f5070002002000f6
:1030940003f0230063f507000004be000044800031
:1030a4001144800002002000031c24001bf50700cb
:1030b4000001be000800be005bf50700e044880084
:1030c400f1448800f04080000041880020418000e5
:1030d400304188005041800060418800c042800037
:1030e400d1428000e0428800f14288000043800021
:1030f400114380002043880031438800404380000e
:10310400514380006043880071438800c2fe070079
:10311400204180006e005000c20020001100090010
:103124000200d800cf80de0040428800514288006f
:10313400f1408000002c2100008040006101b900b2
:1031440040428000514280000203400083834800d3
:1031540086007800505b20000009b8006030b90098
:103164000302780000024200505b200000b8b9005e
:103174000002420084017800020f9800130f9800a7
:103184000e0890009e089000e00f5000e08f580059
:1031940006003d000e0990009e0990006301410065
:1031a400e0814900020f9800130f98000e0a900066
:1031b4009e0a90004e29dd004220de0000007100ce
:1031c400c2a8de000005be00204180006102b900f3
:1031d40084007800f0162000000cb8006020b900cc
:1031e4000901780000014100f016200000a8b90090
:1031f400000141008204780046428000574280006a
:1032040086007800c0ec2e00000ab8000080eb00b5
:1032140000b0b9000501780000014100c0ec2e00a7
:1032240000b8b900000141008202780008014200a0
:1032340089814a0020d22f00f1ff2f0002004000b4
:1032440083804800c20020000300200053f50700db
:103254000a0540008b8548000a8fbe00f1408000bb
:1032640040322100008040006101b90040428000ea
:103274005142800002004000838048004206200042
:103284000300200045f507000003be008600780017
:1032940030002000000ab8006030b9000501780051
:1032a400000141006338b900000141008202780046
:1032b400240f9800350f98002e0a9000be0a900043
:1032c400e00f5200e08f5a0006003d002e089000e7
:1032d400be08900063004000e0804800200f980082
:1032e400310f98002e099000be0990004e1add009f
:1032f4004210de0000007200c298de001e02be0012
:103304000001520081815a0050418000cf80de00cc
:103314000201400083814800502b2800f1ff2f0058
:1033240002004000838048006042880071428800a7
:103334004043800051438000020020000327240002
:1033440076f407000243800013438000b6f40700bc
:10335400020020000327240070f40700c24280000a
:10336400d3428000b0f40700204488003144880030
:10337400604280007142800017f5070002002000bf
:1033840003f02300a7f407000004be0020448000db
:103394003144800002002000031c24005ff4070075
:1033a4000001be000800be009ff40700c04488006e
:1033b400d1448800e0448000f1448000a2448000ad
:1033c400b344800097f40700004588001145880045
:1033d400e0448000f1448000c2448000d344800073
:1033e40090f407002045880031458800204580007e
:1033f40031458000024580001345800047f40700f2
:10340400c0438800d1438800c0438000d14380007a
:1034140002002c0083f224001af5070002002000a9
:10342400434b24003df4070002002000030824005d
:103434003af40700004788001147880000418000e3
:10344400f0408800304180002041880060418000c5
:1034540050418800e0428000f1428000c042880070
:10346400d14288002043800031438000004388001b
:10347400114388006043800071438000404388000a
:10348400514388000047800011478000020020005b
:10349400e32f2400b3f507000000e00001003c0026
:1034a40003003700f0c7b3000be8b7001100370082
:1034b40000478000114780000200200003302c00e8
:1034c40045f507000000e000010035000300370067
:1034d40000c8b3000be8b7000600370000478000bf
:1034e40011478000bcf507000be8b70010c0b3001b
:1034f40002e8b70081fd07004f05be004f04be007f
:103504000080fa00000006000000fa00004180007c
:10351400f0408800304180002041880060418000f4
:1035240050418800e0428000f1428000c04288009f
:10353400d14288002043800031438000004388004a
:103544001143880060438000714380004043880039
:1035540051438800faf707000080fa0000000600d3
:103564000000fa006000b800e0428800f1428800e0
:103574006000b80020438800314388006000b80030
:103584006043880071438800dfff070008003700ac
:10359400e0428000f14280000200200003f8230092
:1035a40021f40700e0428800f1428800d6ff0700ba
:1035b400c0458000d14580006011b80006f50700c1
:1035c4000000e000f2ff3500e0428000f14280009c
:1035d4000200200003f8230012f40700e0428800f0
:1035e400f1428800e0428000f142800002002000a5
:1035f400831b24005bf507000000e00001003c0091
:103604000400370000002000811b2400e0428800f1
:10361400f1428800bcff0700080037002043800007
:10362400314380000200200003f82300fef307006a
:103634002043880031438800b3ff0700c045800061
:10364400d14580006011b800e3f407000000e000f9
:10365400f2ff350020438000314380000200200047
:1036640003f82300eff30700204388003143880068
:10367400204380003143800002002000c326240040
:1036840038f507000000e00001003c0004003700aa
:1036940000002000c1262400204388003143880014
:1036a40099ff07000080fa00000006000000fa00fd
:1036b400604380007143800002002000031724004f
:1036c400d9f3070060438800714388006043800099
:1036d4007143800002002000c326240021f5070066
:1036e4000000e00001003c000a0037006000b80060
:1036f4006043880071438800204380003143800088
:103704000200200003f82300c7f3070020438800c9
:1037140031438800204380003143800002002000b0
:10372400c32624000ff507000000e00001003c0060
:103734000a0037006000b800204388003143880045
:10374400e0428000f14280000200200003f82300e0
:10375400b5f30700e0428800f14288006aff0700e1
:10376400c0458000d14580006011b8009af407007c
:103774000000e000010034000100370078ff07007a
:103784000080fa00000006000200fa00004f7800f2
:10379400010037004efa070032c2bf0061406000ea
:1037a4000004e000fbff3a00c222a80032c2bf00be
:1037b400614060000004e000fcff3200c222a90066
:1037c40043fa07008040780080c4b30080cf5000e3
:1037d400f5ff3a001e4078000ffa07000100370099
:1037e4003bfa070032c2bf00614060000004e00001
:1037f400fbff3a000080fa00000006000000fa0017
:1038040002003700a00f2000caf90700cbc2bf0096
:103814000080fb000000d100614060008080fb005c
:10382400c2c2bf000080fb004600de0061406000b1
:103834000080fb0080804000cac2bf000080fb0003
:103844004700de000080fb0080804000cbc2bf0048
:10385400614060000080fb0000804000e40f5000e5
:10386400e8ff3a00a00f2000b2f90700010037007a
:1038740017fa070032c2bf00614060000004e00094
:10388400fbff3a000080fa00000006000e00fa0078
:10389400889fbe008a9fbe000080eb0060198800ec
:1038a4000000eb0010168800c0ff2f0000168800ef
:1038b4000000eb0050168800e0ff2b004016880043
:1038c40022002000610420007005200023742000e1
:1038d40081497800804978008249780040062000b8
:1038e40094f907000040eb000be8b70083fc0700e5
:1038f4000040eb0000e8b70010c0b30003e8b700d5
:103904006ae0a8006ac0a8006aa0a8006900a8002c
:103914004006200087f90700cbc2bf000080fb00ef
:103924000000d100614060008080fb00c2c2bf0083
:103934000080fb004600de00614060000080fb0068
:1039440000804000e20f5000c60032006ae0a90087
:103954006ac0a9006aa0a9006900a9004006200065
:1039640074f9070088f90700a000200071f9070026
:103974003ffa070061fc0700404380005143800088
:103984000200200003272400e4f207000243800021
:103994001343800024f307000200200003272400bf
:1039a400def20700c2428000d34280001ef307000b
:1039b4004044880051448800204180006e0050003b
:1039c400c2002000110009000200d800cf80de00f0
:1039d4004042880051428800f1408000002c2100c0
:1039e400008040006101b9004042800051428000e3
:1039f400020340008383480086007800505b200067
:103a04000009b8006030b9000302780000024200e7
:103a1400505b200000b8b900000242008401780025
:103a240032079800430798003e029000ce029000af
:103a3400e00f5200e08f5a0006003d003e00900067
:103a4400ce00900063004000e080480030079800fa
:103a5400410798003e019000ce0190004e1add000f
:103a64004210de0000007200c298de000005be00b5
:103a7400204180006102b90084007800f016200023
:103a8400000cb8006020b900090178000001410071
:103a9400f016200000a8b90000014100820478005b
:103aa400464280005742800086007800c0ec2e0019
:103ab400000ab8000080eb0000b0b90005017800ee
:103ac40000014100c0ec2e0000b8b9000001410023
:103ad400820278000801420089814a0020d22f0026
:103ae400f1ff2f000200400083804800c200200044
:103af4000300200029f307000a0540008b854800d5
:103b04001a0798002b079800f140800040322100ea
:103b1400008040006101b9004042800051428000b1
:103b24000200400083804800420620000300200079
:103b34001af307000003be0086007800300020005e
:103b4400000ab8006030b9000501780000014100a6
:103b54006338b900000141008202780054079800dc
:103b6400650798005e009000ee009000e00f5000a2
:103b7400e08f580006003d005e019000ee019000c9
:103b840063014100e08149005207980063079800ef
:103b94005e029000ee0290004e29dd004220de001d
:103ba40000007100c2a8de001e029000ae02900068
:103bb4000001520081815a0050418000cf80de0014
:103bc4000201400083814800502b2800f1ff2f00a0
:103bd40002004000838048006042880071428800ef
:103be4006042800071428000fbf207000200200066
:103bf40003f023008bf207000004be00e0438000c2
:103c0400f143800002002000031c240043f207005b
:103c14000001be000800be0083f20700a044880033
:103c2400b1448800f04080001041880020418000a9
:103c3400404188005041800070418800a00f20005e
:103c4400bcf80700a00f2000baf80700a00f20005e
:103c5400b8f807000000eb00001188000000eb003a
:103c640010118800d5f80700a0002000b1f8070063
:103c740001c8bf00e14f500002003a00f0c8b30091
:103c8400c1fe07006ae0a8006ac0a8006aa0a800f4
:103c94006900a80040062000a6f80700d7fe070028
:103ca40001c8bf00e14f500002003a00f0c8b30061
:103cb400b5fe070071a7a8007187a8007167a80066
:103cc40070e7a80070c7a90070a7a8007067a800d3
:103cd4007007a8007307a8007207a8007547a8001a
:103ce4007527a90074e7a8007687a8007667a8005e
:103cf4007647a8007627a80045c7a80045a7a800ce
:103d04004587a8004567a80000003700cbc2bf0064
:103d14000080fb000000d100614060008080fb0057
:103d2400c2c2bf000080fb004600de0061406000ac
:103d34000080fb00008040000000e0001b003a000f
:103d44004567a90090f80700a000200079f8070053
:103d5400f0c8b3008cfe070045f907000000eb0033
:103d6400001188000000eb001011880070a7a80063
:103d740001c8bf00e14f500008003a00f0c8b3008a
:103d840081fe07001ffc070002c8bf00e14f50007e
:103d940002003a00f0c8b3007bfe070097fe07005c
:103da400f0c8b30078fe07004567a8002ff80700a5
:103db40032c2bf00614060000004e000d3ff320063
:103dc400c3f8070007e8b70071802000914078002d
:103dd40040c5b30080cf500049003a008efb070075
:103de400d7f5070003c8bf00e14f50000c003a00ac
:103df4001000200001002000a0418800b14188008b
:103e04001000200001002000c0418800d14188003a
:103e14000000200001f823006045880071458800f7
:103e2400a0418000b14180004008de000100200074
:103e340079f80700200020003ef80700a041800028
:103e4400b1418000c80add004800de000080720035
:103e5400c808de0070f807002000200035f80700cd
:103e6400a0418000b14180006bf8070020002000d1
:103e740030f80700c0418000d14180004008de00d6
:103e84000100200064f807002000200029f8070042
:103e9400c0418000d14180004809dd004800de00b7
:103ea40000007100c808de005bf807002000200055
:103eb40020f80700c0418000d141800056f8070077
:103ec400200020001bf80700604580007145800039
:103ed4008041eb00034f78006011b80021f3070024
:103ee4000000e00001003c000200370014c0b300f1
:103ef400044f78001e40780047f8070083ff37001e
:103f0400718020009140780080c4b30080cf5000bd
:103f14007eff3a002000200006f8070004c8bf0016
:083f24003df8070079ff3700aa
:020000040000fa
:103f2c000008000008010000000000000809000063
:0c3f3c0002000000000000000000000077
:020000040000fa
:043f48000000fe0077
:00000001FF
