:020000040000FA
:10000000152E012802280328F700030EF8008301AB
:100010000A08F9008A010408FF002008FE007B0896
:10002000A6007C08A7007D08A8002308A9002408D2
:10003000AA002508AB000C1C2628E9103F216A18ED
:100040002428D80BA328E1256915A3288B1DA328F4
:100050000B1CA32837220319A2280E304621372271
:100060000319A2280E30462137220319A2283F2166
:100070000130DE004A084B044C0403194D284A089D
:10008000FB004B08FC004C08FD00E7207B08CA0081
:100090007C08CB007D08CC0051280C308500003056
:1000A00086003508FB003608FC003708FD000330E9
:1000B0005902031D6328D1207B08B5007C08B600D7
:1000C0007D08B700922804305902031D6F28E720ED
:1000D0007B08B5007C08B6007D08B700922844086C
:1000E000FB004508FC004608FD0002305902031DD4
:1000F0008B28E91D8328E7207B08C4007C08C50005
:100100007D08C6009228D1207B08C4007C08C50069
:100110007D08C600922801305902031D9228E91D6E
:100120007B288328E91F9828051A9828E9139D2819
:10013000691CA0288618A0286910CA01CB01CC012F
:100140000608DA000B102608FB002708FC00280828
:10015000FD002908A3002A08A4002B08A5007F0899
:1001600084007E08A00079088A00780E8300F70ECC
:10017000770E09007B08CD007C08CE007D08CF00FB
:100180002F21FD1FD0282308FB002408FC00250890
:10019000FD004D08A3004E08A4004F08A5002F2124
:1001A00008002E307B02031DE12820307C02031D55
:1001B000E12802307D02031DE128FB01FC01FD0165
:1001C0000800FB0F0800FC0F0800FD0A08007B0870
:1001D0007C047D04031DF3282E30FB002030FC003E
:1001E0000230FD0008000130FB0203180800FC0289
:1001F00003180800FD0308007B08CD007C08CE0032
:100200007D08CF003A213A217B08A3007C08A40096
:100210007D08A5004D08FB004E08FC004F08FD00BE
:100220002308FB0724080318240FFC0725080318DC
:10023000250FFD0708007B08CD007C08CE007D0857
:10024000CF003A213A217B08A3007C08A4007D0856
:10025000A5004D08FB004E08FC004F08FD002308D8
:10026000FB022408031C240FFC022508031C250F95
:10027000FD0208000310FD0CFC0CFB0C08008E01B5
:100280000B308F00DC308E000C100800A000000046
:10029000A00B472900000800FA305321FA305321FF
:1002A000FA305321FA30A100F830A000000058299C
:1002B0005929A00B56295C29A10B542908003C3070
:1002C000A2004C21A20B612908002C08B2002D08C5
:1002D000B3002E08B4000430D9003508FB003608FE
:1002E000FC003708FD003208A3003308A4003408DE
:1002F000A5002F21FD1F8B290330D9003208FB00F8
:100300003308FC003408FD003508A3003608A400BB
:100310003708A5002F217B08CA007C08CB007D0888
:10032000CC001730A3001030A4000130A5002F210D
:10033000FD1BB2292F30FB002030FC000230FD00F5
:100340004A08A3004B08A4004C08A5002F217B08F5
:10035000CA007C08CB007D08CC000730E3005908B8
:100360006302D900EB1C172A7E23031DBC2904302D
:100370005902031D0800172A03305902031D080003
:10038000172A3B08C1003C08C2003D08C3000230E8
:10039000D9004108FB004208FC004308FD00440866
:1003A000A3004508A4004608A5002F21FD1FE7294A
:1003B0000130D9004408FB004508FC004608FD0058
:1003C0004108A3004208A4004308A5002F217B0890
:1003D000CA007C08CB007D08CC001730A300103089
:1003E000A4000130A5002F21FD1B0A2A2F30FB009D
:1003F0002030FC000230FD004A08A3004B08A40096
:100400004C08A5002F217B08CA007C08CB007D0882
:10041000CC003E22EB1C172AEA1C132A0130590299
:10042000031D0800172A02305902031D0800CC08DA
:10043000031D212ACB08031D212A4A08E03903198C
:1004400008004A08FB004B08FC004C08FD00223065
:10045000A3009830A4000130A5002F21FD1B362AEF
:100460008230CA000130CB000030CC004A2A060896
:100470005B05FA005A085B057A0208000330E300C6
:1004800059086302D90008000330590203184A2AA8
:10049000EA183E22033059020318502AE9193E2275
:1004A000512A8B13532A0C3085004030DB00033077
:1004B0005902031D5E2A10308600762A0430590244
:1004C000031D652A20308600762A8030DB0002304A
:1004D0005902031D6E2A8C308500762A013059029C
:1004E0000319742A8B1708004C3085000B30462105
:1004F0000608DA000B108B153F21E9148B17E91859
:100500007F2A0C308500003086008B11872A8B13E0
:10051000892A3F21E12569118B17080000308500E9
:100520000530532108004108FB004208FC00430845
:10053000FD001630A3001030A4000130A5002F21CB
:10054000FD1FAF2A4108FB004208FC004308FD00E4
:1005500010217B08C1007C08C2007D08C300080090
:10056000B201B301B4016B215F23031D0800033006
:10057000D9002630CA000030CB000030CC00442225
:10058000B42AC101C201C301C721EA1077230319AC
:1005900008000230D9002630CA000030CB000030FD
:1005A000CC004422C62AE9170430D900B230CA0070
:1005B0005A30CB000030CC005022E91FE22AE91368
:1005C000B02208003508FB003608FC003708FD00A3
:1005D000A130A3001830A4000230A5002F21FD1F78
:1005E000DF2A4C213508B8003608B9003708BA00B0
:1005F000B022E9170130D900B230CA005A30CB001E
:100600000030CC005022E91F082BE913C12208005A
:100610004C214408C7004508C8004608C900C1224B
:10062000EA150800851A122B4C21851A122B851AFF
:10063000302B9324691F172B69130330D900C13065
:10064000CA000030CB000030CC0050220430D9006A
:10065000C130CA000030CB000030CC005022172B34
:100660004C21851E172BB501B601B701C401C50188
:10067000C6010800B022C1221223EA19D322F224B3
:100680006521F224C12108002C08B5002D08B60010
:100690002E08B70008003B08C4003C08C5003D0810
:1006A000C60008002C08FB002D08FC002E08FD00E9
:1006B000EE30A3007830A4000030A500722B35087E
:1006C000FB003608FC003708FD006C2B2C08FB00F3
:1006D0002D08FC002E08FD001730A3001030A400E8
:1006E0000130A5002F21FD1F8D2B031108004408A8
:1006F000FB004508FC004608FD00842B3B08FB007E
:100700003C08FC003D08FD001630A3001030A4009A
:100710000130A5002F21FD1F752B03150800590876
:10072000DC003230EE00D2255C08D900D324031D52
:10073000752B61085F02031C752BEE0BA02B752B2C
:100740005F08E0002630CA000030CB000030CC004B
:100750004422D2250318942BFA305321D2250318B2
:10076000942B8D2B0130D9008F23031D752B023064
:10077000D9004D30CA000030CB000030CC004422FC
:100780000230D9008F23031D752B4408CD00450886
:10079000CE004608CF000130D9004D30CA000030ED
:1007A000CB000030CC0044220130D9008F23031D40
:1007B000752B4408FB004508FC004608FD004D0869
:1007C000A3004E08A4004F08A500BA207B08CD0066
:1007D0007C08CE007D08CF001D30A3000F30A400A0
:1007E0000030A5002F21FD1F752B4D08FB004E0882
:1007F000FC004F08FD001B213A217B08CA007C0841
:10080000CB007D08CC000230D9004422F2244B23D7
:100810008D2B7E230319362C0430D9008F23031D22
:10082000752B0330D9004D30CA000030CB000030AA
:10083000CC0044220330D9008F23031D752B3508CB
:10084000CD003608CE003708CF000430D9004D3037
:10085000CA000030CB000030CC0044220430D90064
:100860008F23031D752B0330D9005F2C0330D90073
:100870008F23031D752B0430D9004D30CA00003082
:10088000CB000030CC0044220430D9008F23031D5C
:10089000752B3508CD003608CE003708CF00033061
:1008A000D9004D30CA000030CB000030CC004422CB
:1008B0000330D9008F23031D752B0430D900350870
:1008C000FB003608FC003708FD004D08A3004E0869
:1008D000A4004F08A500BA207B08CD007C08CE00FC
:1008E0007D08CF001D30A3000F30A4000030A5000C
:1008F0002F21FD1F752B4D08FB004E08FC004F08F3
:10090000FD005908033C0319872C1B21882CFC206F
:100910003A217B08CA007C08CB007D08CC004A2223
:10092000F22444238D2BD324031D992C0A30ED008F
:10093000752BE808031908000430D900681CAD2C99
:100940000330D900E81CAD2C0130D900E81DAD2CD6
:100950000230D900681DAD2C752B0A306D02031CC6
:10096000B32C0A30ED00ED0BBD2C69140B30CA001E
:100970008830CB000030CC00C32C2630CA000030B9
:10098000CB000030CC005022F2242C08B5002D08FA
:10099000B6002E08B7003B08C4003C08C5003D085F
:1009A000C60069108D2B0F30E800861C8D2BD82CCB
:1009B0008B13DA2C48308F25AA258B170318E800F3
:1009C000E81B6917681B6A140F390F3C0800643074
:1009D0005321D324031DE72C64305321D324031D5A
:1009E000E72C08003B08BE003C08BF003D08C000E3
:1009F0002C08AF002D08B0002E08B1005008D1001F
:100A0000012D8B13032D54308F25AA25031C7F2D18
:100A1000BD00AA25031C7F2DBC00AA25031C7F2D29
:100A2000BB00AA25031C7F2DAE00AA25031C7F2D29
:100A3000AD00AA25031C7F2DAC00AA25031C7F2D29
:100A4000D0008B17E91E492D6A19492D2F08FB008C
:100A50003008FC003108FD002C08A3002D08A4007C
:100A60002E08A5002F21FD1B492D7E23031D492D96
:100A70006A150B30FB008830FC000030FD003B089D
:100A8000A3003C08A4003D08A5002F21FD1F492D0F
:100A90006B14EA103E08FB003F08FC004008FD0014
:100AA0003B08A3003C08A4003D08A5002F21FD1B26
:100AB0005A2DEA143B08FB003C08FC003D08FD00F1
:100AC0002F30A3002030A4000230A5002F21FD1BF1
:100AD0006C2DBB01BC01BD012C08FB002D08FC00E6
:100AE0002E08FD002F30A3002030A4000230A50006
:100AF0002F21FD1B7E2DAC01AD01AE0108002F089A
:100B0000AC003008AD003108AE003E08BB003F0825
:100B1000BC004008BD005108D0008B170800D5006C
:100B20000830D30086154230D200D20B952DD50C5B
:100B3000031C9C2D86119E2D000086154230D2008C
:100B4000D20BA02DD30B972D86114230D200D20BA1
:100B5000A72D0800D40103100830D300E301E401FD
:100B60000619B72DE30BB02DE40BB02DCF2D1D30A2
:100B7000D200D20BB92D061DB02DD40C4230D200BC
:100B8000D20BC02D000000000000061DD417D30BAF
:100B9000BD2D4230D200D20BCB2D03140619031009
:100BA000540808001F151F19D32D1E08DF00600808
:100BB0005F020800831640309F00831249309F0077
:100BC00008003C30D80008001430E700080000306E
:100BD000850000308600831672308F003330850028
:100BE000C730860003309B00073081008312080065
:100BF000F92D8B13FB2D3F21E1256911E4258B177E
:100C00000800DC308E000B308F00313090000C106B
:100C100083160C1483120B178B17080020308400E6
:100C20008001840A841F102E0800E7254C214C21E6
:100C3000E7250E26DA25F82501260A30ED000330D7
:100C4000D9008230CA000130CB000030CC005022E5
:100C50000430D9008230CA000130CB000030CC0013
:100C600050220130D9008230CA000130CB00003060
:100C7000CC0050220230D9008230CA000130CB00B3
:100C80000030CC00502212236A1C482E49308F2598
:100C9000F2243B083C043D042C042D042E04500493
:100CA000031D652E0130D900C130CA000030CB00D1
:100CB0000030CC0050220230D900C130CA000030D0
:100CC000CB000030CC005022642EE915501CE911F5
:100CD000D322F825E9126A116B10EA1069157630F3
:100CE000E1006623031DBF2E2230C1009830C200F0
:100CF0000130C300042F851A832EFA305321851A40
:100D0000832E3A23A02E93240319A02EF2246623C7
:100D10000319CA2E691D7B2E69118930E000D22586
:100D2000031C942E8930E100EB146521C121EB10E6
:100D30007E23031DE916E208031DA02EE70B7B2E80
:100D4000E4256108E000D2250318A92E0130E70050
:100D50007B2E09240319AD2EBF2E52230319BB2E5F
:100D60006108E000D2250318B82E0130E7007B2E81
:100D7000B223031DBF2EE208031DE2037B2EF224E3
:100D80006521F224C121F22465210130E7000330FE
:100D9000E2007B2E6B1CDA2E1730C1001030C2002F
:100DA0000130C300C7212230C1009830C200013099
:100DB000C300C721C122EA1DF12EE9170130D90075
:100DC000B230CA005A30CB000030CC005022E913B8
:100DD0004C214708C4004808C5004908C600C12284
:100DE0004C212F30FB002030FC000230FD003B087E
:100DF000A3003C08A4003D08A5002F217B08C100EA
:100E00007C08C2007D08C300C721EA1D192FE9171D
:100E10000430D900B230CA005A30CB000030CC00C8
:100E20005022E9134C213808B5003908B6003A08B9
:100E3000B7002A30B200DC30B3000130B4006B21BF
:100E40004C218E226A1C262F0A306021FA30532151
:100E5000F22466230319262FE9126A116B10EA1097
:0A0E60007630E100F8256915BF2E79
:101000000A308A118F258A150D308A118F258A158D
:1010100008002C308A118F258A150800E600660E1C
:101020005B208A118F258A1566085B208A118F251F
:101030008A150800E500C8306502031C26283230F6
:101040008A118F258A15C830E5023528643065027B
:10105000031C312831308A118F258A156430E5024E
:10106000352830308A118F258A1565084F20E60013
:10107000660E0F3930388F2566080F3930388F25C6
:101080000800E600660E0F3930388F252E308A11A1
:101090008F258A1566080F3930388F250800E3013F
:1010A000E4000A306402031C5828E400E30A5128D3
:1010B000630E640708000F393038E300393C031829
:1010C00063280730E30763080800E400E300640EC8
:1010D0000F3903197328E40063080F39E3000A305D
:1010E000E307E40B6F2863080800892009209A2091
:1010F0000920AB200920BB200920B22009208A1139
:101100007E238A150E208A1166238A150E20002060
:10111000080046080E2045080E2044080E202F30F7
:101120008A118F258A153D080E203C080E203B08A9
:101130000E20080037080E2036080E2035080E2035
:101140002F308A118F258A152E080E202D080E208B
:101150002C080E2008004C080E204B080E204A08D0
:101160000E2008008A11D2258A155F081A2009204E
:0C11700060081A20080059080E20080032
:02400E00101987
:02401000FC3F73
:10420000530075006E0043007500620065002000D9
:1042100046003800380020004600690072006D003A
:104220007700610072006500200056006500720092
:104230002000320030003100300031003000320008
:10424000380061002C00200043006F0070007900EE
:1042500072006900670068007400280043002900AC
:1042600020004700720065006700200057006100D1
:10427000740073006F006E002000320030003000C8
:1042800035002D0032003000310030002E002000BB
:1042900041006C006C00200072006900670068003B
:1042A00074007300200072006500730065007200E6
:1042B0007600650064002E00000000000000000091
:1042C00000000000000000000000000000000000EE
:1042D00000000000000000000000000000000000DE
:1042E00000000000000000000000000000000000CE
:1042F00000000000000000000000AA005500AA0015
:084300005500AA005500000061
:00000001FF
